{
  "contractName": "Voting",
  "abi": [
    {
      "inputs": [
        {
          "internalType": "string",
          "name": "_question",
          "type": "string"
        },
        {
          "internalType": "string[]",
          "name": "_answers",
          "type": "string[]"
        },
        {
          "internalType": "address[]",
          "name": "_voters",
          "type": "address[]"
        },
        {
          "internalType": "uint256",
          "name": "_startTimestamp",
          "type": "uint256"
        },
        {
          "internalType": "uint256",
          "name": "_endTimestamp",
          "type": "uint256"
        }
      ],
      "payable": false,
      "stateMutability": "nonpayable",
      "type": "constructor"
    },
    {
      "constant": true,
      "inputs": [
        {
          "internalType": "uint256",
          "name": "",
          "type": "uint256"
        }
      ],
      "name": "answers",
      "outputs": [
        {
          "internalType": "string",
          "name": "answer",
          "type": "string"
        },
        {
          "internalType": "uint256",
          "name": "count",
          "type": "uint256"
        }
      ],
      "payable": false,
      "stateMutability": "view",
      "type": "function"
    },
    {
      "constant": true,
      "inputs": [],
      "name": "endTimestamp",
      "outputs": [
        {
          "internalType": "uint256",
          "name": "",
          "type": "uint256"
        }
      ],
      "payable": false,
      "stateMutability": "view",
      "type": "function"
    },
    {
      "constant": true,
      "inputs": [],
      "name": "question",
      "outputs": [
        {
          "internalType": "string",
          "name": "",
          "type": "string"
        }
      ],
      "payable": false,
      "stateMutability": "view",
      "type": "function"
    },
    {
      "constant": true,
      "inputs": [],
      "name": "startTimestamp",
      "outputs": [
        {
          "internalType": "uint256",
          "name": "",
          "type": "uint256"
        }
      ],
      "payable": false,
      "stateMutability": "view",
      "type": "function"
    },
    {
      "constant": true,
      "inputs": [],
      "name": "votersCount",
      "outputs": [
        {
          "internalType": "uint256",
          "name": "",
          "type": "uint256"
        }
      ],
      "payable": false,
      "stateMutability": "view",
      "type": "function"
    },
    {
      "constant": false,
      "inputs": [
        {
          "internalType": "uint256",
          "name": "index",
          "type": "uint256"
        }
      ],
      "name": "vote",
      "outputs": [],
      "payable": false,
      "stateMutability": "nonpayable",
      "type": "function"
    },
    {
      "constant": true,
      "inputs": [],
      "name": "getAnswersCount",
      "outputs": [
        {
          "internalType": "uint256",
          "name": "",
          "type": "uint256"
        }
      ],
      "payable": false,
      "stateMutability": "view",
      "type": "function"
    },
    {
      "constant": true,
      "inputs": [],
      "name": "getAllAnswers",
      "outputs": [
        {
          "components": [
            {
              "internalType": "string",
              "name": "answer",
              "type": "string"
            },
            {
              "internalType": "uint256",
              "name": "count",
              "type": "uint256"
            }
          ],
          "internalType": "struct Voting.Answer[]",
          "name": "",
          "type": "tuple[]"
        }
      ],
      "payable": false,
      "stateMutability": "view",
      "type": "function"
    },
    {
      "constant": true,
      "inputs": [],
      "name": "getVotedCount",
      "outputs": [
        {
          "internalType": "uint256",
          "name": "count",
          "type": "uint256"
        }
      ],
      "payable": false,
      "stateMutability": "view",
      "type": "function"
    },
    {
      "constant": true,
      "inputs": [],
      "name": "getMostVoted",
      "outputs": [
        {
          "components": [
            {
              "internalType": "string",
              "name": "answer",
              "type": "string"
            },
            {
              "internalType": "uint256",
              "name": "count",
              "type": "uint256"
            }
          ],
          "internalType": "struct Voting.Answer",
          "name": "",
          "type": "tuple"
        }
      ],
      "payable": false,
      "stateMutability": "view",
      "type": "function"
    }
  ],
  "bytecode": "0x60806040523480156200001157600080fd5b506040516200144b3803806200144b8339818101604052620000379190810190620005a5565b6101008451111562000080576040517f08c379a0000000000000000000000000000000000000000000000000000000008152600401620000779062000780565b60405180910390fd5b6801000000000000000083511115620000d0576040517f08c379a0000000000000000000000000000000000000000000000000000000008152600401620000c790620007a2565b60405180910390fd5b80821062000115576040517f08c379a00000000000000000000000000000000000000000000000000000000081526004016200010c906200075e565b60405180910390fd5b84600090805190602001906200012d9291906200027f565b5060008090505b8451811015620001cf57600160405180604001604052808784815181106200015857fe5b602002602001015181526020016000815250908060018154018082558091505090600182039060005260206000209060020201600090919290919091506000820151816000019080519060200190620001b392919062000306565b5060208201518160010155505050808060010191505062000134565b5060008090505b83518110156200025d57600160046000868481518110620001f357fe5b602002602001015173ffffffffffffffffffffffffffffffffffffffff1673ffffffffffffffffffffffffffffffffffffffff16815260200190815260200160002060000160006101000a81548160ff0219169083151502179055508080600101915050620001d6565b5082516005819055508160028190555080600381905550505050505062000957565b828054600181600116156101000203166002900490600052602060002090601f016020900481019282601f10620002c257805160ff1916838001178555620002f3565b82800160010185558215620002f3579182015b82811115620002f2578251825591602001919060010190620002d5565b5b5090506200030291906200038d565b5090565b828054600181600116156101000203166002900490600052602060002090601f016020900481019282601f106200034957805160ff19168380011785556200037a565b828001600101855582156200037a579182015b82811115620003795782518255916020019190600101906200035c565b5b5090506200038991906200038d565b5090565b620003b291905b80821115620003ae57600081600090555060010162000394565b5090565b90565b600081519050620003c68162000923565b92915050565b600082601f830112620003de57600080fd5b8151620003f5620003ef82620007f2565b620007c4565b915081818352602084019350602081019050838560208402820111156200041b57600080fd5b60005b838110156200044f5781620004348882620003b5565b8452602084019350602083019250506001810190506200041e565b5050505092915050565b600082601f8301126200046b57600080fd5b8151620004826200047c826200081b565b620007c4565b9150818183526020840193506020810190508360005b83811015620004cc5781518601620004b18882620004d6565b84526020840193506020830192505060018101905062000498565b5050505092915050565b600082601f830112620004e857600080fd5b8151620004ff620004f98262000844565b620007c4565b915080825260208301602083018583830111156200051c57600080fd5b62000529838284620008ed565b50505092915050565b600082601f8301126200054457600080fd5b81516200055b620005558262000871565b620007c4565b915080825260208301602083018583830111156200057857600080fd5b62000585838284620008ed565b50505092915050565b6000815190506200059f816200093d565b92915050565b600080600080600060a08688031215620005be57600080fd5b600086015167ffffffffffffffff811115620005d957600080fd5b620005e78882890162000532565b955050602086015167ffffffffffffffff8111156200060557600080fd5b620006138882890162000459565b945050604086015167ffffffffffffffff8111156200063157600080fd5b6200063f88828901620003cc565b935050606062000652888289016200058e565b925050608062000665888289016200058e565b9150509295509295909350565b600062000681602a836200089e565b91507f53746172742074696d65206e6565647320746f206265206f6c6465722074686160008301527f6e20656e642074696d65000000000000000000000000000000000000000000006020830152604082019050919050565b6000620006e9601a836200089e565b91507f546f6f206d616e7920616e737765727320286d617820323536290000000000006000830152602082019050919050565b60006200072b601a836200089e565b91507f546f6f206d616e7920766f7465727320286d617820325e3634290000000000006000830152602082019050919050565b60006020820190508181036000830152620007798162000672565b9050919050565b600060208201905081810360008301526200079b81620006da565b9050919050565b60006020820190508181036000830152620007bd816200071c565b9050919050565b6000604051905081810181811067ffffffffffffffff82111715620007e857600080fd5b8060405250919050565b600067ffffffffffffffff8211156200080a57600080fd5b602082029050602081019050919050565b600067ffffffffffffffff8211156200083357600080fd5b602082029050602081019050919050565b600067ffffffffffffffff8211156200085c57600080fd5b601f19601f8301169050602081019050919050565b600067ffffffffffffffff8211156200088957600080fd5b601f19601f8301169050602081019050919050565b600082825260208201905092915050565b6000620008bc82620008c3565b9050919050565b600073ffffffffffffffffffffffffffffffffffffffff82169050919050565b6000819050919050565b60005b838110156200090d578082015181840152602081019050620008f0565b838111156200091d576000848401525b50505050565b6200092e81620008af565b81146200093a57600080fd5b50565b6200094881620008e3565b81146200095457600080fd5b50565b610ae480620009676000396000f3fe608060405234801561001057600080fd5b506004361061009e5760003560e01c8063648d2af511610066578063648d2af51461014a57806398c07938146101685780639fecfe5714610186578063a85adeab146101a4578063e6fd48bc146101c25761009e565b80630121b93f146100a357806308294b99146100bf57806317599cc5146100dd57806332d80bab1461010e5780633fad9ae01461012c575b600080fd5b6100bd60048036036100b89190810190610709565b6101e0565b005b6100c76102b1565b6040516100d49190610905565b60405180910390f35b6100f760048036036100f29190810190610709565b6103bc565b604051610105929190610949565b60405180910390f35b610116610485565b6040516101239190610999565b60405180910390f35b6101346105d4565b6040516101419190610927565b60405180910390f35b610152610672565b60405161015f91906109bb565b60405180910390f35b6101706106bb565b60405161017d91906109bb565b60405180910390f35b61018e6106c1565b60405161019b91906109bb565b60405180910390f35b6101ac6106ce565b6040516101b991906109bb565b60405180910390f35b6101ca6106d4565b6040516101d791906109bb565b60405180910390f35b6001805490508110610227576040517f08c379a000000000000000000000000000000000000000000000000000000000815260040161021e90610979565b60405180910390fd5b600180828154811061023557fe5b9060005260206000209060020201600101600082825401925050819055506001600460003373ffffffffffffffffffffffffffffffffffffffff1673ffffffffffffffffffffffffffffffffffffffff16815260200190815260200160002060000160016101000a81548160ff02191690831515021790555050565b60606001805480602002602001604051908101604052809291908181526020016000905b828210156103b35783829060005260206000209060020201604051806040016040529081600082018054600181600116156101000203166002900480601f0160208091040260200160405190810160405280929190818152602001828054600181600116156101000203166002900480156103915780601f1061036657610100808354040283529160200191610391565b820191906000526020600020905b81548152906001019060200180831161037457829003601f168201915b50505050508152602001600182015481525050815260200190600101906102d5565b50505050905090565b600181815481106103c957fe5b9060005260206000209060020201600091509050806000018054600181600116156101000203166002900480601f0160208091040260200160405190810160405280929190818152602001828054600181600116156101000203166002900480156104755780601f1061044a57610100808354040283529160200191610475565b820191906000526020600020905b81548152906001019060200180831161045857829003601f168201915b5050505050908060010154905082565b61048d6106da565b60008090506000600190505b6001805490508110156104fb57600182815481106104b357fe5b906000526020600020906002020160010154600182815481106104d257fe5b90600052602060002090600202016001015411156104ee578091505b8080600101915050610499565b506001818154811061050957fe5b9060005260206000209060020201604051806040016040529081600082018054600181600116156101000203166002900480601f0160208091040260200160405190810160405280929190818152602001828054600181600116156101000203166002900480156105bb5780601f10610590576101008083540402835291602001916105bb565b820191906000526020600020905b81548152906001019060200180831161059e57829003601f168201915b5050505050815260200160018201548152505091505090565b60008054600181600116156101000203166002900480601f01602080910402602001604051908101604052809291908181526020018280546001816001161561010002031660029004801561066a5780601f1061063f5761010080835404028352916020019161066a565b820191906000526020600020905b81548152906001019060200180831161064d57829003601f168201915b505050505081565b600080600090505b6001805490508110156106b7576001818154811061069457fe5b90600052602060002090600202016001015482019150808060010191505061067a565b5090565b60055481565b6000600180549050905090565b60035481565b60025481565b604051806040016040528060608152602001600081525090565b60008135905061070381610a8a565b92915050565b60006020828403121561071b57600080fd5b6000610729848285016106f4565b91505092915050565b600061073e83836108aa565b905092915050565b6000610751826109e6565b61075b8185610a09565b93508360208202850161076d856109d6565b8060005b858110156107a9578484038952815161078a8582610732565b9450610795836109fc565b925060208a01995050600181019050610771565b50829750879550505050505092915050565b60006107c6826109f1565b6107d08185610a1a565b93506107e0818560208601610a46565b6107e981610a79565b840191505092915050565b60006107ff826109f1565b6108098185610a2b565b9350610819818560208601610a46565b61082281610a79565b840191505092915050565b600061083a601983610a2b565b91507f4e6f20616e737765722077697468207468617420696e646578000000000000006000830152602082019050919050565b6000604083016000830151848203600086015261088a82826107bb565b915050602083015161089f60208601826108e7565b508091505092915050565b600060408301600083015184820360008601526108c782826107bb565b91505060208301516108dc60208601826108e7565b508091505092915050565b6108f081610a3c565b82525050565b6108ff81610a3c565b82525050565b6000602082019050818103600083015261091f8184610746565b905092915050565b6000602082019050818103600083015261094181846107f4565b905092915050565b6000604082019050818103600083015261096381856107f4565b905061097260208301846108f6565b9392505050565b600060208201905081810360008301526109928161082d565b9050919050565b600060208201905081810360008301526109b3818461086d565b905092915050565b60006020820190506109d060008301846108f6565b92915050565b6000819050602082019050919050565b600081519050919050565b600081519050919050565b6000602082019050919050565b600082825260208201905092915050565b600082825260208201905092915050565b600082825260208201905092915050565b6000819050919050565b60005b83811015610a64578082015181840152602081019050610a49565b83811115610a73576000848401525b50505050565b6000601f19601f8301169050919050565b610a9381610a3c565b8114610a9e57600080fd5b5056fea365627a7a723158205c6ac1004daf86aead8b89c815b31372efd347ae4b918ffbd90613b0e3b464f06c6578706572696d656e74616cf564736f6c63430005100040",
  "source": "pragma solidity >=0.4.21 <0.7.0;\npragma experimental ABIEncoderV2;\n\ncontract Voting {\n    struct Answer {\n        string answer;\n        uint256 count;\n    }\n    struct Voter {\n        bool registered;\n        bool voted;\n        uint256 voteTimestamp;\n    }\n\n    string public question;\n    Answer[] public answers;\n\n    uint256 public startTimestamp;\n    uint256 public endTimestamp;\n\n    mapping(address => Voter) voters;\n    uint256 public votersCount;\n\n    constructor(string memory _question, string[] memory _answers, address[] memory _voters, uint256 _startTimestamp, uint256 _endTimestamp) public {\n        require(_answers.length <= 2**8, \"Too many answers (max 256)\");\n        require(_voters.length <= 2**64, \"Too many voters (max 2^64)\");\n        require(_startTimestamp < _endTimestamp, \"Start time needs to be older than end time\");\n        question = _question;\n        for (uint256 i = 0; i < _answers.length; i++) {\n            answers.push(Answer(_answers[i], 0));\n        }\n        for (uint256 i = 0; i < _voters.length; i++) {\n            voters[_voters[i]].registered = true;\n        }\n        votersCount = _voters.length;\n        startTimestamp = _startTimestamp;\n        endTimestamp = _endTimestamp;\n    }\n\n    function vote(uint256 index) public {\n        /* Disabled due to Godwoken's issues\n        require(startTimestamp <= block.timestamp, \"Voting hasn't started\");\n        require(endTimestamp >= block.timestamp, \"Voting has ended!\");\n        */\n        require(index < answers.length, \"No answer with that index\");\n        /* Disabled for testing\n        require(voters[msg.sender].registered == true, \"You need to be approved for voting!\");\n        require(voters[msg.sender].voted == false, \"You already answered this question\");\n        */\n        answers[index].count += 1;\n        voters[msg.sender].voted = true;\n    }\n\n    function getAnswersCount() public view returns (uint256) {\n        return answers.length;\n    }\n\n    function getAllAnswers() public view returns (Answer[] memory) {\n        return answers;\n    }\n\n    function getVotedCount() public view returns (uint256 count) {\n        for (uint256 i = 0; i < answers.length; i++) {\n            count += answers[i].count;\n        }\n    }\n\n    function getMostVoted() public view returns (Answer memory) {\n        uint256 mostVotedIndex = 0;\n        for (uint256 i = 1; i < answers.length; i++) {\n            if (answers[i].count > answers[mostVotedIndex].count) {\n                mostVotedIndex = i;\n            }\n        }\n        return answers[mostVotedIndex];\n    }\n}",
  "sourcePath": "/home/venoox/WebstormProjects/voting_app/contracts/Voting.sol",
  "compiler": {
    "name": "solc",
    "version": "0.5.16+commit.9c3226ce.Emscripten.clang"
  },
  "schemaVersion": "3.4.1",
  "updatedAt": "2021-08-27T14:24:48.937Z",
  "networkType": "ethereum",
  "devdoc": {
    "methods": {}
  },
  "userdoc": {
    "methods": {}
  }
}